{
  "contractName": "Orders",
  "abi": [
    {
      "constant": true,
      "inputs": [],
      "name": "version",
      "outputs": [
        {
          "name": "",
          "type": "uint8"
        }
      ],
      "payable": false,
      "stateMutability": "view",
      "type": "function",
      "signature": "0x54fd4d50"
    },
    {
      "inputs": [
        {
          "name": "_storageAddress",
          "type": "address"
        }
      ],
      "payable": false,
      "stateMutability": "nonpayable",
      "type": "constructor",
      "signature": "constructor"
    },
    {
      "anonymous": false,
      "inputs": [
        {
          "indexed": false,
          "name": "orderId",
          "type": "string"
        },
        {
          "indexed": false,
          "name": "createdDate",
          "type": "uint256"
        },
        {
          "indexed": false,
          "name": "itemsHash",
          "type": "bytes32"
        }
      ],
      "name": "OrderAccepted",
      "type": "event",
      "signature": "0x15514beaa173777c4e64433698a7033dc4d96b90bf0819c3e8086ac59b866384"
    },
    {
      "anonymous": false,
      "inputs": [
        {
          "indexed": false,
          "name": "orderId",
          "type": "string"
        },
        {
          "indexed": false,
          "name": "reason",
          "type": "string"
        }
      ],
      "name": "OrderDelayed",
      "type": "event",
      "signature": "0xbf05ac0e184fb4f9d556a02cb7c1bf5cc66a0eb234806dd7eb7b16a240a3b42f"
    },
    {
      "anonymous": false,
      "inputs": [
        {
          "indexed": false,
          "name": "orderId",
          "type": "string"
        },
        {
          "indexed": false,
          "name": "completedDate",
          "type": "uint256"
        }
      ],
      "name": "OrderCompleted",
      "type": "event",
      "signature": "0x3d3aef256611ad38434eef880ba3403786213deb744854c6ef08d90d998af4a5"
    },
    {
      "constant": false,
      "inputs": [
        {
          "name": "_orderId",
          "type": "string"
        },
        {
          "name": "_createdDate",
          "type": "uint256"
        },
        {
          "name": "_itemsHash",
          "type": "bytes32"
        }
      ],
      "name": "createOrder",
      "outputs": [],
      "payable": false,
      "stateMutability": "nonpayable",
      "type": "function",
      "signature": "0x6d4270dc"
    },
    {
      "constant": false,
      "inputs": [
        {
          "name": "_orderId",
          "type": "string"
        },
        {
          "name": "_reason",
          "type": "string"
        }
      ],
      "name": "delayOrder",
      "outputs": [],
      "payable": false,
      "stateMutability": "nonpayable",
      "type": "function",
      "signature": "0xd58b052c"
    },
    {
      "constant": false,
      "inputs": [
        {
          "name": "_orderId",
          "type": "string"
        },
        {
          "name": "_completedDate",
          "type": "uint256"
        }
      ],
      "name": "completeOrder",
      "outputs": [],
      "payable": false,
      "stateMutability": "nonpayable",
      "type": "function",
      "signature": "0x49f3a2b9"
    },
    {
      "constant": true,
      "inputs": [
        {
          "name": "_orderId",
          "type": "string"
        }
      ],
      "name": "getOrder",
      "outputs": [
        {
          "components": [
            {
              "name": "orderId",
              "type": "string"
            },
            {
              "name": "createdDate",
              "type": "uint256"
            },
            {
              "name": "itemsHash",
              "type": "bytes32"
            },
            {
              "name": "state",
              "type": "uint8"
            }
          ],
          "name": "",
          "type": "tuple"
        }
      ],
      "payable": false,
      "stateMutability": "view",
      "type": "function",
      "signature": "0x712ca0f8"
    },
    {
      "constant": true,
      "inputs": [
        {
          "name": "_orderId",
          "type": "string"
        }
      ],
      "name": "getDelays",
      "outputs": [
        {
          "components": [
            {
              "name": "reason",
              "type": "string"
            }
          ],
          "name": "",
          "type": "tuple[]"
        }
      ],
      "payable": false,
      "stateMutability": "view",
      "type": "function",
      "signature": "0x55384c5d"
    }
  ],
  "bytecode": "0x608060405260008060006101000a81548173ffffffffffffffffffffffffffffffffffffffff021916908373ffffffffffffffffffffffffffffffffffffffff1602179055506001600060146101000a81548160ff021916908360ff1602179055503480156200006e57600080fd5b5060405160208062001e138339810180604052620000909190810190620000ed565b806000806101000a81548173ffffffffffffffffffffffffffffffffffffffff021916908373ffffffffffffffffffffffffffffffffffffffff160217905550506200014d565b6000620000e5825162000139565b905092915050565b6000602082840312156200010057600080fd5b60006200011084828501620000d7565b91505092915050565b600073ffffffffffffffffffffffffffffffffffffffff82169050919050565b6000620001468262000119565b9050919050565b611cb6806200015d6000396000f3fe608060405260043610610078576000357c0100000000000000000000000000000000000000000000000000000000900463ffffffff16806349f3a2b91461007d57806354fd4d50146100a657806355384c5d146100d15780636d4270dc1461010e578063712ca0f814610137578063d58b052c14610174575b600080fd5b34801561008957600080fd5b506100a4600480360361009f9190810190611333565b61019d565b005b3480156100b257600080fd5b506100bb610266565b6040516100c89190611a33565b60405180910390f35b3480156100dd57600080fd5b506100f860048036036100f39190810190611286565b610279565b604051610105919061177c565b60405180910390f35b34801561011a57600080fd5b5061013560048036036101309190810190611387565b610574565b005b34801561014357600080fd5b5061015e60048036036101599190810190611286565b610780565b60405161016b9190611a11565b60405180910390f35b34801561018057600080fd5b5061019b600480360361019691908101906112c7565b610907565b005b816101a781610b5e565b15156101e8576040517f08c379a00000000000000000000000000000000000000000000000000000000081526004016101df906119cf565b60405180910390fd5b6101f0610f67565b6101f984610780565b905060028160600190600281111561020d57fe5b9081600281111561021a57fe5b8152505061022781610cc1565b7f3d3aef256611ad38434eef880ba3403786213deb744854c6ef08d90d998af4a58484604051610258929190611941565b60405180910390a150505050565b600060149054906101000a900460ff1681565b6060808260405160200180807f6f72646572732e64656c61797300000000000000000000000000000000000000815250600d0182805190602001908083835b6020831015156102dd57805182526020820191506020810190506020830392506102b8565b6001836020036101000a038019825116818451168082178552505050505050905001915050604051602081830303815290604052905060008060009054906101000a900473ffffffffffffffffffffffffffffffffffffffff1673ffffffffffffffffffffffffffffffffffffffff1673__BytesListStorage______________________63063014049091846040518363ffffffff167c01000000000000000000000000000000000000000000000000000000000281526004016103a3929190611857565b60206040518083038186803b1580156103bb57600080fd5b505af41580156103cf573d6000803e3d6000fd5b505050506040513d601f19601f820116820180604052506103f39190810190611470565b905060608160405190808252806020026020018201604052801561043157816020015b61041e610f9e565b8152602001906001900390816104165790505b50905060008090505b828110156105685760606000809054906101000a900473ffffffffffffffffffffffffffffffffffffffff1673ffffffffffffffffffffffffffffffffffffffff1673__BytesListStorage______________________6380a2bf27909187856040518463ffffffff167c01000000000000000000000000000000000000000000000000000000000281526004016104d4939291906118cc565b60006040518083038186803b1580156104ec57600080fd5b505af4158015610500573d6000803e3d6000fd5b505050506040513d6000823e3d601f19601f820116820180604052506105299190810190611245565b90508080602001905161053f91908101906113ee565b838381518110151561054d57fe5b9060200190602002018190525050808060010191505061043a565b50809350505050919050565b61057d83610b5e565b1515156105bf576040517f08c379a00000000000000000000000000000000000000000000000000000000081526004016105b6906119af565b60405180910390fd5b6105c7610f67565b608060405190810160405280858152602001848152602001838152602001600060028111156105f257fe5b815250905061060081610cc1565b6000809054906101000a900473ffffffffffffffffffffffffffffffffffffffff1673ffffffffffffffffffffffffffffffffffffffff16635e443ea58560405160200180807f6f72646572732e65786973747300000000000000000000000000000000000000815250600d0182805190602001908083835b60208310151561069e5780518252602082019150602081019050602083039250610679565b6001836020036101000a03801982511681845116808217855250505050505090500191505060405160208183030381529060405260016040518363ffffffff167c010000000000000000000000000000000000000000000000000000000002815260040161070d9291906117c0565b600060405180830381600087803b15801561072757600080fd5b505af115801561073b573d6000803e3d6000fd5b505050507f15514beaa173777c4e64433698a7033dc4d96b90bf0819c3e8086ac59b86638484848460405161077293929190611971565b60405180910390a150505050565b610788610f67565b60606000809054906101000a900473ffffffffffffffffffffffffffffffffffffffff1673ffffffffffffffffffffffffffffffffffffffff1663781c6dbe8460405160200180807f6f72646572732e64657461696c73000000000000000000000000000000000000815250600e0182805190602001908083835b6020831015156108285780518252602082019150602081019050602083039250610803565b6001836020036101000a0380198251168184511680821785525050505050509050019150506040516020818303038152906040526040518263ffffffff167c0100000000000000000000000000000000000000000000000000000000028152600401610894919061179e565b60006040518083038186803b1580156108ac57600080fd5b505afa1580156108c0573d6000803e3d6000fd5b505050506040513d6000823e3d601f19601f820116820180604052506108e99190810190611245565b9050808060200190516108ff919081019061142f565b915050919050565b8161091181610b5e565b1515610952576040517f08c379a0000000000000000000000000000000000000000000000000000000008152600401610949906119cf565b60405180910390fd5b61095a610f67565b61096384610780565b905060018160600190600281111561097757fe5b9081600281111561098457fe5b8152505061099181610cc1565b610999610fb2565b6020604051908101604052808581525090506000809054906101000a900473ffffffffffffffffffffffffffffffffffffffff1673ffffffffffffffffffffffffffffffffffffffff1673__BytesListStorage______________________635b51e17690918760405160200180807f6f72646572732e64656c61797300000000000000000000000000000000000000815250600d0182805190602001908083835b602083101515610a605780518252602082019150602081019050602083039250610a3b565b6001836020036101000a03801982511681845116808217855250505050505090500191505060405160208183030381529060405284604051602001610aa591906119ef565b6040516020818303038152906040526040518463ffffffff167c0100000000000000000000000000000000000000000000000000000000028152600401610aee93929190611887565b60006040518083038186803b158015610b0657600080fd5b505af4158015610b1a573d6000803e3d6000fd5b505050507fbf05ac0e184fb4f9d556a02cb7c1bf5cc66a0eb234806dd7eb7b16a240a3b42f8585604051610b4f92919061190a565b60405180910390a15050505050565b60008060009054906101000a900473ffffffffffffffffffffffffffffffffffffffff1673ffffffffffffffffffffffffffffffffffffffff16637be0bbdb8360405160200180807f6f72646572732e65786973747300000000000000000000000000000000000000815250600d0182805190602001908083835b602083101515610bfe5780518252602082019150602081019050602083039250610bd9565b6001836020036101000a0380198251168184511680821785525050505050509050019150506040516020818303038152906040526040518263ffffffff167c0100000000000000000000000000000000000000000000000000000000028152600401610c6a919061179e565b60206040518083038186803b158015610c8257600080fd5b505afa158015610c96573d6000803e3d6000fd5b505050506040513d601f19601f82011682018060405250610cba919081019061121c565b9050919050565b6000809054906101000a900473ffffffffffffffffffffffffffffffffffffffff1673ffffffffffffffffffffffffffffffffffffffff1662bc9222826000015160405160200180807f6f72646572732e64657461696c73000000000000000000000000000000000000815250600e0182805190602001908083835b602083101515610d625780518252602082019150602081019050602083039250610d3d565b6001836020036101000a03801982511681845116808217855250505050505090500191505060405160208183030381529060405283604051602001610da79190611a11565b6040516020818303038152906040526040518363ffffffff167c0100000000000000000000000000000000000000000000000000000000028152600401610def9291906117f0565b600060405180830381600087803b158015610e0957600080fd5b505af1158015610e1d573d6000803e3d6000fd5b505050506000809054906101000a900473ffffffffffffffffffffffffffffffffffffffff1673ffffffffffffffffffffffffffffffffffffffff1663fdd2dae7826000015160405160200180807f6f72646572732e64657461696c732e76657273696f6e0000000000000000000081525060160182805190602001908083835b602083101515610ec35780518252602082019150602081019050602083039250610e9e565b6001836020036101000a03801982511681845116808217855250505050505090500191505060405160208183030381529060405260016040518363ffffffff167c0100000000000000000000000000000000000000000000000000000000028152600401610f32929190611827565b600060405180830381600087803b158015610f4c57600080fd5b505af1158015610f60573d6000803e3d6000fd5b5050505050565b60806040519081016040528060608152602001600081526020016000801916815260200160006002811115610f9857fe5b81525090565b602060405190810160405280606081525090565b602060405190810160405280606081525090565b6000610fd28251611ba8565b905092915050565b6000610fe68235611bb4565b905092915050565b6000610ffa8251611bb4565b905092915050565b600082601f830112151561101557600080fd5b815161102861102382611a7b565b611a4e565b9150808252602083016020830185838301111561104457600080fd5b61104f838284611c38565b50505092915050565b60006110648251611bbe565b905092915050565b600082601f830112151561107f57600080fd5b815161109261108d82611aa7565b611a4e565b915080825260208301602083018583830111156110ae57600080fd5b6110b9838284611c38565b50505092915050565b600082601f83011215156110d557600080fd5b81356110e86110e382611ad3565b611a4e565b9150808252602083016020830185838301111561110457600080fd5b61110f838284611c29565b50505092915050565b60006020828403121561112a57600080fd5b6111346020611a4e565b9050600082015167ffffffffffffffff81111561115057600080fd5b61115c8482850161106c565b60008301525092915050565b60006080828403121561117a57600080fd5b6111846080611a4e565b9050600082015167ffffffffffffffff8111156111a057600080fd5b6111ac8482850161106c565b60008301525060206111c084828501611208565b60208301525060406111d484828501610fee565b60408301525060606111e884828501611058565b60608301525092915050565b60006112008235611bd7565b905092915050565b60006112148251611bd7565b905092915050565b60006020828403121561122e57600080fd5b600061123c84828501610fc6565b91505092915050565b60006020828403121561125757600080fd5b600082015167ffffffffffffffff81111561127157600080fd5b61127d84828501611002565b91505092915050565b60006020828403121561129857600080fd5b600082013567ffffffffffffffff8111156112b257600080fd5b6112be848285016110c2565b91505092915050565b600080604083850312156112da57600080fd5b600083013567ffffffffffffffff8111156112f457600080fd5b611300858286016110c2565b925050602083013567ffffffffffffffff81111561131d57600080fd5b611329858286016110c2565b9150509250929050565b6000806040838503121561134657600080fd5b600083013567ffffffffffffffff81111561136057600080fd5b61136c858286016110c2565b925050602061137d858286016111f4565b9150509250929050565b60008060006060848603121561139c57600080fd5b600084013567ffffffffffffffff8111156113b657600080fd5b6113c2868287016110c2565b93505060206113d3868287016111f4565b92505060406113e486828701610fda565b9150509250925092565b60006020828403121561140057600080fd5b600082015167ffffffffffffffff81111561141a57600080fd5b61142684828501611118565b91505092915050565b60006020828403121561144157600080fd5b600082015167ffffffffffffffff81111561145b57600080fd5b61146784828501611168565b91505092915050565b60006020828403121561148257600080fd5b600061149084828501611208565b91505092915050565b60006114a482611b0c565b808452602084019350836020820285016114bd85611aff565b60005b848110156114f65783830388526114d88383516116c2565b92506114e382611b38565b91506020880197506001810190506114c0565b508196508694505050505092915050565b61151081611b45565b82525050565b61151f81611b51565b82525050565b600061153082611b17565b808452611544816020860160208601611c38565b61154d81611c6b565b602085010191505092915050565b600061156682611b17565b80845261157a816020860160208601611c38565b61158381611c6b565b602085010191505092915050565b61159a81611be1565b82525050565b6115a981611c05565b82525050565b6115b881611c17565b82525050565b60006115c982611b2d565b8084526115dd816020860160208601611c38565b6115e681611c6b565b602085010191505092915050565b60006115ff82611b22565b808452611613816020860160208601611c38565b61161c81611c6b565b602085010191505092915050565b6000601482527f4f7264657220616c7265616479206578697374730000000000000000000000006020830152604082019050919050565b6000601482527f4f7264657220646f6573206e6f742065786973740000000000000000000000006020830152604082019050919050565b600060208301600083015184820360008601526116b582826115f4565b9150508091505092915050565b600060208301600083015184820360008601526116df82826115f4565b9150508091505092915050565b6000608083016000830151848203600086015261170982826115f4565b915050602083015161171e602086018261174f565b5060408301516117316040860182611516565b50606083015161174460608601826115a0565b508091505092915050565b61175881611b91565b82525050565b61176781611b91565b82525050565b61177681611b9b565b82525050565b600060208201905081810360008301526117968184611499565b905092915050565b600060208201905081810360008301526117b88184611525565b905092915050565b600060408201905081810360008301526117da8185611525565b90506117e96020830184611507565b9392505050565b6000604082019050818103600083015261180a8185611525565b9050818103602083015261181e8184611525565b90509392505050565b600060408201905081810360008301526118418185611525565b905061185060208301846115af565b9392505050565b600060408201905061186c6000830185611591565b818103602083015261187e818461155b565b90509392505050565b600060608201905061189c6000830186611591565b81810360208301526118ae818561155b565b905081810360408301526118c2818461155b565b9050949350505050565b60006060820190506118e16000830186611591565b81810360208301526118f3818561155b565b9050611902604083018461175e565b949350505050565b6000604082019050818103600083015261192481856115be565b9050818103602083015261193881846115be565b90509392505050565b6000604082019050818103600083015261195b81856115be565b905061196a602083018461174f565b9392505050565b6000606082019050818103600083015261198b81866115be565b905061199a602083018561174f565b6119a76040830184611516565b949350505050565b600060208201905081810360008301526119c88161162a565b9050919050565b600060208201905081810360008301526119e881611661565b9050919050565b60006020820190508181036000830152611a098184611698565b905092915050565b60006020820190508181036000830152611a2b81846116ec565b905092915050565b6000602082019050611a48600083018461176d565b92915050565b6000604051905081810181811067ffffffffffffffff82111715611a7157600080fd5b8060405250919050565b600067ffffffffffffffff821115611a9257600080fd5b601f19601f8301169050602081019050919050565b600067ffffffffffffffff821115611abe57600080fd5b601f19601f8301169050602081019050919050565b600067ffffffffffffffff821115611aea57600080fd5b601f19601f8301169050602081019050919050565b6000602082019050919050565b600081519050919050565b600081519050919050565b600081519050919050565b600081519050919050565b6000602082019050919050565b60008115159050919050565b6000819050919050565b6000600382101515611b6957fe5b819050919050565b600073ffffffffffffffffffffffffffffffffffffffff82169050919050565b6000819050919050565b600060ff82169050919050565b60008115159050919050565b6000819050919050565b6000600382101515611bcf57600080fd5b819050919050565b6000819050919050565b6000611bec82611bf3565b9050919050565b6000611bfe82611b71565b9050919050565b6000611c1082611b5b565b9050919050565b6000611c2282611b91565b9050919050565b82818337600083830152505050565b60005b83811015611c56578082015181840152602081019050611c3b565b83811115611c65576000848401525b50505050565b6000601f19601f830116905091905056fea265627a7a7230582081f9b03c38a62cfd14e1759e707a3cfe59ba251acd8acb3262c89d0e608813d56c6578706572696d656e74616cf50037",
  "source": "pragma solidity ^0.5.0;\npragma experimental ABIEncoderV2;\n\nimport \"@cncy/storage.contracts/contracts/StorageInterface.sol\";\nimport \"@cncy/storage.contracts/contracts/libraries/BytesListStorage.sol\";\n\ncontract Orders {\n\n    using BytesListStorage for StorageInterface;\n    StorageInterface s = StorageInterface(0);\n\n    uint8 public version = 1;\n\n    event OrderAccepted(\n        string orderId,\n        uint createdDate,\n        bytes32 itemsHash\n    );\n\n    event OrderDelayed(\n        string orderId,\n        string reason\n    );\n\n    event OrderCompleted(\n        string orderId,\n        uint completedDate\n    );\n\n    struct Order {\n        string orderId;\n        uint createdDate;\n        bytes32 itemsHash;\n        State state;\n    }\n\n    struct Delay {\n        string reason;\n    }\n\n    enum State { Accepted, Delayed, Completed }\n\n    constructor(address _storageAddress) public {\n        s = StorageInterface(_storageAddress);\n    }\n\n    function createOrder(string memory _orderId, uint _createdDate, bytes32 _itemsHash) public {\n        require(!orderExists(_orderId), \"Order already exists\");\n\n        Order memory order = Order({\n            orderId: _orderId,\n            createdDate: _createdDate,\n            itemsHash: _itemsHash,\n            state: State.Accepted\n        });\n\n        saveOrder(order);\n        s.setBool(abi.encodePacked(\"orders.exists\", _orderId), true);\n\n        emit OrderAccepted(_orderId, _createdDate, _itemsHash);\n    }\n\n    function delayOrder(string memory _orderId, string memory _reason) public exists(_orderId) {\n        Order memory order = getOrder(_orderId);\n        order.state = State.Delayed;\n\n        saveOrder(order);\n\n        Delay memory delay = Delay({\n            reason: _reason\n        });\n\n        s.pushListItem(abi.encodePacked(\"orders.delays\", _orderId), abi.encode(delay));\n\n        emit OrderDelayed(_orderId, _reason);\n    }\n\n    function completeOrder(string memory _orderId, uint _completedDate) public exists(_orderId) {\n        Order memory order = getOrder(_orderId);\n        order.state = State.Completed;\n\n        saveOrder(order);\n\n        emit OrderCompleted(_orderId, _completedDate);\n    }\n\n    function getOrder(string memory _orderId) public view returns (Order memory) {\n        bytes memory structBytes = s.getBytes(abi.encodePacked(\"orders.details\", _orderId));\n        return abi.decode(structBytes, (Order));\n    }\n\n    function getDelays(string memory _orderId) public view returns (Delay[] memory) {\n        bytes memory key = abi.encodePacked(\"orders.delays\", _orderId);\n        uint count = s.getListCount(key);\n\n        Delay[] memory delays = new Delay[](count);\n\n        for (uint i = 0; i < count; i++) {\n            bytes memory structBytes = s.getListItem(key, i);\n            delays[i] = abi.decode(structBytes, (Delay));\n        }\n\n        return delays;\n    }\n\n    function saveOrder(Order memory _order) private {\n        s.setBytes(abi.encodePacked(\"orders.details\", _order.orderId), abi.encode(_order));\n        s.setUint(abi.encodePacked(\"orders.details.version\", _order.orderId), 1);\n    }\n\n    function orderExists(string memory _orderId) internal view returns (bool) {\n        return s.getBool(abi.encodePacked(\"orders.exists\", _orderId));\n    }\n\n    modifier exists(string memory _orderId) {\n        require(orderExists(_orderId), \"Order does not exist\");\n        _;\n    }\n\n}",
  "sourcePath": "/Users/connor/Documents/git/ConcurrencyBlockchain/BlockchainServices/Orders.Contracts/contracts/Orders.sol",
  "compiler": {
    "name": "solc",
    "version": "0.5.0+commit.1d4f565a.Emscripten.clang"
  },
  "schemaVersion": "3.0.0",
  "updatedAt": "2019-01-04T01:51:39.496Z",
  "devdoc": {
    "methods": {}
  },
  "userdoc": {
    "methods": {}
  }
}